:100000000C942A000C9447000C9447000C94470071
:100010000C9447000C9447000C9447000C94E400A7
:100020000C9447000C9447000C9447000C94470034
:100030000C9447000C9447000C9447000C94470024
:100040000C9447000C9447000C9447000C94470014
:100050000C94470011241FBECFE5D8E0DEBFCDBF12
:1000600010E0A0E6B0E0E4EDFEE002C005900D92E5
:10007000A836B107D9F711E0A8E6B0E001C01D929B
:10008000A333B107E1F70E94FB050C9468070C94B9
:10009000000080E03FE028B3932F981B207F922B35
:1000A00098BB8F5F8830B8F380E0F5CFFFCFCF9358
:1000B000DF938091160190911701A0911801B091E2
:1000C00019010196A11DB11D80931601909317018E
:1000D000A0931801B093190190911A0180911B010E
:1000E000E92FF82FC92FD82F20E030E041E050E071
:1000F00021C085819681A781B0850097A105B105B2
:10010000A9F085819681A781B0850197A109B109E0
:1001100085839683A783B08785819681A781B085E3
:100120000097A105B10511F4598348832F5F3F4F14
:10013000399629968091120190E028173907CCF260
:10014000DF91CF91089560911A0170911B01DB013D
:1001500040E050E020E030E01AC08D919C91119772
:100160008130910589F412969C911297F90183E0F0
:10017000EE0FFF1F8A95E1F7E20FF31FE60FF71F5F
:100180008281981708F49A014F5F5F4F199680910A
:10019000120190E04817590704F320932E01C9017A
:1001A00043E0880F991F4A95E1F7820F931FE09172
:1001B0001A01F0911B01E80FF91F8381948190933C
:1001C0002D0180932C0108950F920FB6F8940F9291
:1001D0001F9211242F923F924F925F926F927F92C3
:1001E0008F929F92AF92BF92CF92DF92EF92FF9247
:1001F0000F931F932F933F934F935F936F937F932F
:100200008F939F93AF93BF93CF93DF93EF93FF931E
:10021000A0912C01B0912D010DB60D920EB60D924C
:100220000E9457000E94A300A0912C01B0912D01C3
:10023000CD91CDBFDD91DEBFFF91EF91DF91CF91E9
:10024000BF91AF919F918F917F916F915F914F91EE
:100250003F912F911F910F91FF90EF90DF90CF90E2
:10026000BF90AF909F908F907F906F905F904F90D6
:100270003F902F901F900F900FBE0F9018951F93D7
:10028000CF93DF93782F192FDA01A90190911201F2
:1002900080911301891718F4809112010FC12091E8
:1002A0001A0130911B018091120190E0FC01C3E022
:1002B000EE0FFF1FCA95E1F7E80FF91FE20FF31FDA
:1002C00085E090E0918380838091120190E0FC01B1
:1002D000D3E0EE0FFF1FDA95E1F7E80FF91FE20F09
:1002E000F31F62838091120190E0FC0163E0EE0F46
:1002F000FF1F6A95E1F7E80FF91FE20FF31F158260
:10030000168217821086FA013197EA0FFB1F80913F
:10031000120190E0DC01C3E0AA0FBB1FCA95E1F710
:10032000A80FB91FA20FB31FEF0121971496DC93FA
:10033000CE93139781E1808392E29883DF01129735
:1003400023E32C93DF0113977C93DF0114971C9315
:10035000DF0115971C92DF0116971C92DF0117979A
:100360001C92DF01189722E02C93DF01199723E0FC
:100370002C93DF011A9724E02C93DF011B9725E0D3
:100380002C93DF011C9726E02C93DF011D9727E0BB
:100390002C93DF011E9728E02C93DF011F9729E0A3
:1003A0002C93DF01509720E12C93DF0151978C9320
:1003B000DF01529782E18C93DF01539783E18C93A5
:1003C000DF01549784E18C93DF01559785E18C938D
:1003D000DF01569786E18C93DF01579787E18C9375
:1003E000DF01589788E18C93DF01599789E18C935D
:1003F000DF015A9780E28C93DF015B9781E28C9357
:10040000DF015C979C93DF015D9783E28C93DF01B2
:100410005E9784E28C93DF015F9785E28C93DF0126
:10042000909786E28C93DF01919787E28C93DF01AE
:10043000929788E28C93DF01939789E28C93DF0196
:10044000949780E38C93DF01959781E38C93B69723
:100450002091120130E0C90113E0880F991F1A950D
:10046000E1F7820F931FA0911A01B0911B01A80F11
:10047000B91F13960D90BC91A02DEC932091120101
:1004800030E0C90163E0880F991F6A95E1F7820F98
:10049000931FA0911A01B0911B01A80FB91F1396C9
:1004A0000D90BC91A02D1196FC9311978091120193
:1004B0008F5F80931201809112018150DF91CF9163
:1004C0001F9108951F93CF93DF93EC01162F209176
:1004D00014013091150121153105D1F50097C1F1B5
:1004E000862F90E069E070E00E94140690931B0153
:1004F00080931A01009761F110931301D0931501B5
:10050000C09314018EB588608EBD89B7806189BFA4
:10051000DBBDCABD8EB581608EBD86E590E06FEF14
:100520004DEB50E025E530E00E943F019091130132
:10053000981770F0CCE1D1E080E090E00E941F05B8
:100540008993999381E0CC32D807B1F781E001C05B
:1005500080E0DF91CF911F91089590E09C0173E0BE
:10056000220F331F7A95E1F7280F391FE0911A0106
:10057000F0911B01E20FF31F81E090E091838083F3
:100580000895E0911A01F0911B0181E090E09183C0
:10059000808310922E018381948190932D0180930A
:1005A0002C01A0912C01B0912D01CD91CDBFDD91F9
:1005B000DEBFFF91EF91DF91CF91BF91AF919F91FE
:1005C0008F917F916F915F914F913F912F911F91EB
:1005D0000F91FF90EF90DF90CF90BF90AF909F90E2
:1005E0008F907F906F905F904F903F902F901F90D3
:1005F0000F900FBE0F90189508950F920FB6F894B4
:100600000F921F9211242F923F924F925F926F92FE
:100610007F928F929F92AF92BF92CF92DF92EF9292
:10062000FF920F931F932F933F934F935F936F937B
:100630007F938F939F93AF93BF93CF93DF93EF936A
:10064000FF93A0912C01B0912D010DB60D920EB625
:100650000D920E94A300A0912C01B0912D01CD918B
:10066000CDBFDD91DEBFFF91EF91DF91CF91BF91C3
:10067000AF919F918F917F916F915F914F913F913A
:100680002F911F910F91FF90EF90DF90CF90BF902F
:10069000AF909F908F907F906F905F904F903F9022
:1006A0002F901F900F900FBE0F90189540912E0124
:1006B00050E09A01E3E0220F331FEA95E1F7240F9F
:1006C000351FE0911A01F0911B01E20FF31F23E0A7
:1006D00030E031832083A0E0B0E085839683A78358
:1006E000B0870E94FD0208950F931F93CF93DF936D
:1006F000082F83E090E00E943206192FC82FD92FCF
:1007000008838091130190E00E9454059A838983A5
:100710008C2F912FDF91CF911F910F910895FC01A4
:10072000F8948081882321F0815080837894089503
:100730006181728180912E010E94960520912E0187
:1007400030E0C901A3E0880F991FAA95E1F7820F55
:10075000931FE0911A01F0911B01E80FF91F82E04D
:1007600090E0918380830E94FD0208950F931F9370
:10077000CF93DF938C01F894FC01818192810E94D8
:100780003B05009701F5C0911A01D0911B01F801BA
:10079000818192810E94B40590E0FC01B3E0EE0FEC
:1007A000FF1FBA95E1F7E80FF91FEC0FFD1F81E07D
:1007B00090E091838083F801818192810E94C90534
:1007C0000E94FD0205C0F80180818F5F80837894CC
:1007D000DF91CF911F910F910895FC0180810895C1
:1007E000EF92FF920F931F93CF93C82F882369F145
:1007F000F8940CE111E0C0FF0CC0F801E080F1803A
:10080000C7010E942F05AC0180912E01B7010E9403
:10081000F204C6950E5F1F4FCC2369F720912E017D
:1008200030E0C901C3E0880F991FCA95E1F7820F34
:10083000931FE0911A01F0911B01E80FF91F84E06A
:1008400090E0918380830E94FD02CF911F910F91D0
:10085000FF90EF9008951F93CF93DF93182FF89494
:10086000CCE1D1E00AC010FF06C068817981809197
:100870002E010E94DF04169522961123A1F7789489
:10088000DF91CF911F9108958F929F92AF92BF9267
:10089000CF92DF92EF92FF921F93CF93DF93182FA7
:1008A000F8944CE1C42E41E0D42E51E0852E912CD9
:1008B00043C010FF3CC0F601A080B180C5010E947A
:1008C0002F057C012EC0C7010E9434057C01C09118
:1008D0001A01D0911B010E94380590E0FC0133E021
:1008E000EE0FFF1F3A95E1F7E80FF91FEC0FFD1F20
:1008F0008081918184309105A1F4C0911A01D09139
:100900001B01C7010E94380590E0FC0123E0EE0FB7
:10091000FF1F2A95E1F7E80FF91FEC0FFD1F9182E9
:100920008082C701B5010E94B804009761F2169554
:1009300082E090E0C80ED91E112309F0BACF0E94C0
:10094000FD02DF91CF911F91FF90EF90DF90CF904C
:10095000BF90AF909F908F90089521E030E0FC0110
:1009600081819281009711F020E030E0C901089563
:1009700021E030E0FC0181819281009711F020E0BC
:1009800030E0C9010895DB011196ED91FC911297B9
:1009900003C00180F281E02D309719F09081981703
:1009A000C1F7CF010895FB0101C0FD01A181B28112
:1009B000109719F09C919817C1F7CF0108950E94E4
:1009C000D304DC011196ED91FC911297309749F018
:1009D0008181928112969C938E931197CF010E94F0
:1009E000C80608951F93CF93DF93182FEA0183E081
:1009F00090E00E943206FC01108389819A819283E3
:100A00008183FA83E983DF91CF911F910895CF937A
:100A1000DF93DC011196ED91FC91129712961C92D6
:100A20001E92119707C0D181C281CF010E94C806D2
:100A3000ED2FFC2F3097B9F7DF91CF9108950097F4
:100A400011F00E94070583E090E00E943206FC014D
:100A5000009719F0128211821082CF010895089533
:100A6000FC01818192810895FC0181819281089528
:100A7000FC018081089521E030E0FC0186819781AE
:100A8000009711F020E030E0C9010895FC0121E059
:100A900030E046815781808191814817590711F0D4
:100AA00020E030E0C90108950F931F93CF93DF93A7
:100AB0008C018AE090E00E943206EC010097B9F0C8
:100AC000C8010E94320699878887009731F4CE01C9
:100AD0000E94C806C0E0D0E00AC0198308831F82C4
:100AE0001E8281E090E09B838A831D821C82CE015E
:100AF000DF91CF911F910F910895FC01178216820B
:100B000081E090E093838283158214820895CF93CD
:100B1000DF93EC01009739F0888599850E94C8061B
:100B2000CE010E94C806DF91CF910895FB01268176
:100B300037814081518124173507A9F02F5F3F4F3E
:100B400037832683248135812F5F3F4F2417350754
:100B500011F420E030E0358324830084F185E02D1A
:100B6000E20FF31F80830895DC0116968D919C910E
:100B70001797009761F01896ED91FC9119971296CE
:100B80008D919C911397E80FF91F8081089580E063
:100B90000895FC0186819781009779F001979783EA
:100BA0008683828193810196208131818217930708
:100BB00011F480E090E0938382830895FC018681A4
:100BC00097810097B1F001979783868322813381C3
:100BD000A085B185A20FB31F8C912F5F3F4F40813D
:100BE00051812417350711F420E030E0338322834C
:100BF000089580E008958FEF87BB11BA88BB80E12C
:100C000097E265E00E94620289E490E06EE148E6C6
:100C100050E025E530E00E943F010E94AD020E94B5
:100C2000C10280E090E008950F931F93CF93DF936C
:100C3000689F8001699F100D789F100D1124C801D5
:100C40000E943206C82FD92F209731F08C2F60E0F8
:100C500070E0A8010E946107CE01DF91CF911F9142
:100C60000F910895CF93DF93AC018230910510F47A
:100C700042E050E0E0913101F091320120E030E0BB
:100C8000A0E0B0E024C08081918184179507D0F066
:100C90008417950771F482819381109729F0139638
:100CA0009C938E9312972CC09093320180933101C4
:100CB00027C02115310519F08217930718F49C01FC
:100CC000BD01EF0192818381DF01E92FF82F309779
:100CD000D1F621153105F9F0C901841B950B84303B
:100CE000910580F48A819B816115710521F0FB01DA
:100CF0009383828304C09093320180933101FE017B
:100D0000329642C0FE01E80FF91F419351930297BA
:100D10009983888339C080912F0190913001009789
:100D200041F480916400909165009093300180932C
:100D30002F0120916200309163002115310541F4AB
:100D40002DB73EB78091660090916700281B390B44
:100D5000E0912F01F0913001E217F30798F42E1B78
:100D60003F0B2417350770F0CA0102962817390780
:100D700048F08E0F9F1F9093300180932F01419375
:100D8000519302C0E0E0F0E0CF01DF91CF910895F0
:100D90000F931F93CF93DF939C01009709F48CC0AE
:100DA000DC01129713961C921E92129760913101EA
:100DB000709132016115710589F48D919C911197A3
:100DC000820F931F20912F0130913001281739078E
:100DD00069F5B0933001A0932F016EC0FB0140E094
:100DE00050E001C0FC01EA17FB0730F482819381D7
:100DF000AF010097B9F71FC0E9012297FB83EA838F
:100E000008811981C901800F911F8E179F0759F41E
:100E100080819181800F911F0296998388838281BE
:100E200093819B838A834115510529F4B093320144
:100E3000A093310141C0FA01B383A283C191D19142
:100E4000EC0FFD1FAE17BF0781F4F901929182915B
:100E50008C0F9D1F0296DA0111969C938E938281CE
:100E6000938113969C938E931297E0E0F0E002C07A
:100E7000FB01BC01DB0112968D919C9113970097A9
:100E8000B9F7CB0102962D913C911197820F931FD8
:100E900020912F01309130012817390769F43097DC
:100EA00029F4109232011092310102C01382128291
:100EB0007093300160932F01DF91CF911F910F91BB
:100EC0000895DC0101C06D9341505040E0F7089552
:040ED000F894FFCFC4
:080ED40010270000330120008B
:00000001FF
