:100000000C942A000C9447000C9447000C94470071
:100010000C9447000C9447000C9447000C949101F9
:100020000C9447000C9447000C9447000C94470034
:100030000C9447000C9447000C9447000C94470024
:100040000C9447000C9447000C9447000C94470014
:100050000C94470011241FBECFE5D8E0DEBFCDBF12
:1000600010E0A0E6B0E0E6ECFEE002C005900D92E4
:10007000A836B107D9F712E0A8E6B0E001C01D929A
:10008000A433B107E1F70E94CD000C9461070C94F2
:10009000000081E00E94550488EE93E00E948E03E8
:1000A000F8CF1F93CF93DF93C9E1D0E01FEF81E03A
:1000B0000E941C0448B385E090E018BA28EB3BE0AE
:1000C000FE013197F1F721503040D1F718BB28EBF2
:1000D0003BE0FE013197F1F721503040D1F7019715
:1000E00061F748BBE4CF1F93CF93DF931FEFC9E1C4
:1000F000D0E018BB88EB9BE0FE013197F1F7019748
:10010000D9F78091190290911A020E94C9030AC07E
:1001100088B3869588BB88EB9BE0FE013197F1F7A9
:100120000197D9F788B3882399F7809119029091A4
:100130001A020E94EB0380ED97E00E948E03D9CF54
:100140001F93CF93DF931FEFC9E1D0E018BB88EB7B
:100150009BE0FE013197F1F70197D9F780911902E1
:1001600090911A020E94C9030AC088B3880F88BB05
:1001700088EB9BE0FE013197F1F70197D9F788B33F
:10018000882399F78091190290911A020E94EB033B
:1001900088EE93E00E948E03D9CF8FEF87BB81E07A
:1001A0000E94A70390931A028093190280E197E2BC
:1001B00065E00E949D0280EA90E06EE148E650E032
:1001C00025E530E00E94EC010E94EA0283E790E01E
:1001D00063E24DEB50E025E530E00E94EC010E9427
:1001E000EA0281E590E064E142E151E025E530E09A
:1001F0000E94EC010E94EA0289E490E069E147E68E
:1002000051E025E530E00E94EC010E94EA020E94E4
:10021000F90280E090E00895FFCF8091BC019091B9
:10022000BD01A091BE01B091BF010196A11DB11DFC
:100230008093BC019093BD01A093BE01B093BF0118
:10024000E0911B02F0911C0220E030E041E050E020
:1002500020C085819681A781B0850097A105B10551
:10026000A9F085819681A781B0850197A109B1097F
:1002700085839683A783B08785819681A781B08582
:100280000097A105B10511F4518340832F5F3F4FC3
:1002900039968091C30190E028173907D4F2089568
:1002A00040911B0250911C02DA0120E030E080E016
:1002B00090E01AC06D917C9111976130710589F4BD
:1002C00012967C911297FC0163E0EE0FFF1F6A9576
:1002D000E1F7E80FF91FE40FF51F6281761708F4C4
:1002E000C9012F5F3F4F19966091C30170E0261737
:1002F000370704F380932F029C0143E0220F331F42
:100300004A95E1F7280F391FE0911B02F0911C027A
:10031000E20FF31F8381948190932E0280932D022C
:1003200008950F920FB6F8940F921F9211242F92F6
:100330003F924F925F926F927F928F929F92AF9275
:10034000BF92CF92DF92EF92FF920F931F932F9362
:100350003F934F935F936F937F938F939F93AF934D
:10036000BF93CF93DF93EF93FF93A0912D02B091B2
:100370002E020DB60D920EB60D920E940D010E9436
:100380005001A0912D02B0912E02CD91CDBFDD91F3
:10039000DEBFFF91EF91DF91CF91BF91AF919F9120
:1003A0008F917F916F915F914F913F912F911F910D
:1003B0000F91FF90EF90DF90CF90BF90AF909F9004
:1003C0008F907F906F905F904F903F902F901F90F5
:1003D0000F900FBE0F9018950F931F93CF93DF933D
:1003E000F9013091C3012091C201231718F48091C3
:1003F000C3019EC0A0911B02B0911C022091C301B9
:1004000039E0239FE0011124CA0FDB1F05E010E053
:10041000198308832091C301239FE0011124CA0F8F
:10042000DB1F6A832091C301239FE0011124CA0FBF
:10043000DB1F1D821E821F8218863197E40FF51F75
:100440002091C301239FE0011124CA0FDB1FDF01AC
:100450001197BC83AB8341E1408322E22C93FD01E1
:1004600053E352938293929312921292129282E0E9
:10047000829383E0829384E0829385E0829386E096
:10048000829387E0829388E08293329380E1829323
:10049000429382E1829383E1829384E1829385E1B6
:1004A000829386E1829387E1829388E1829389E156
:1004B000829380E2829381E28293229383E2829309
:1004C00084E2829385E2829386E2829387E282933A
:1004D00088E2829389E2829380E3829381E382932C
:1004E000CF0101974091C301439FA0011124E091E6
:1004F0001B02F0911C02E40FF51F0380F481E02D34
:1005000080832091C301239F90011124E0911B025D
:10051000F0911C02E20FF31F0380F481E02D918320
:100520008091C3018F5F8093C3018091C30181508B
:10053000DF91CF911F910F9108951F93CF93DF9378
:10054000EC01162F8091C0019091C1010097E9F54F
:100550002097D9F1862F90E069E070E00E94E605CF
:1005600090931C0280931B02009779F11093C201B3
:10057000D093C101C093C0018EB588608EBD89B78C
:10058000806189BFDBBDCABD8EB581608EBD8CE048
:1005900091E06FEF44EC51E025E530E00E94EC0182
:1005A0009091C201981788F0CDE1D2E0812F90E0C0
:1005B00062E070E00E94E60588839983229682E0DB
:1005C000CD32D80799F781E001C080E0DF91CF916B
:1005D0001F91089599E0899FC0011124E0911B02A9
:1005E000F0911C02E80FF91F81E090E09183808375
:1005F0000895E0911B02F0911C0281E090E091834C
:10060000808310922F028381948190932E02809395
:100610002D02A0912D02B0912E02CD91CDBFDD9182
:10062000DEBFFF91EF91DF91CF91BF91AF919F918D
:100630008F917F916F915F914F913F912F911F917A
:100640000F91FF90EF90DF90CF90BF90AF909F9071
:100650008F907F906F905F904F903F902F901F9062
:100660000F900FBE0F90189508950F920FB6F89443
:100670000F921F9211242F923F924F925F926F928E
:100680007F928F929F92AF92BF92CF92DF92EF9222
:10069000FF920F931F932F933F934F935F936F930B
:1006A0007F938F939F93AF93BF93CF93DF93EF93FA
:1006B000FF93A0912D02B0912E020DB60D920EB6B1
:1006C0000D920E945001A0912D02B0912E02CD9169
:1006D000CDBFDD91DEBFFF91EF91DF91CF91BF9153
:1006E000AF919F918F917F916F915F914F913F91CA
:1006F0002F911F910F91FF90EF90DF90CF90BF90BF
:10070000AF909F908F907F906F905F904F903F90B1
:100710002F901F900F900FBE0F901895E0911B0225
:10072000F0911C0230912F0229E0329F9001112498
:10073000E20FF31F23E030E031832083A0E0B0E03C
:1007400085839683A783B0870E9435030895EF922F
:10075000FF920F931F93CF93DF93082F83E090E0D6
:100760000E940A06192FE82EE7017E01F92EE70103
:1007700008838091C20190E00E9437059A838983A3
:100780008E2D912FDF91CF911F910F91FF90EF90C0
:100790000895FC01F8948081882321F081508083A2
:1007A000789408956181728180912F020E94810561
:1007B00090912F0289E0989FC0011124E0911B02C3
:1007C000F0911C02E80FF91F82E090E09183808392
:1007D0000E94350308950F931F93CF93DF93EC018D
:1007E000F89489819A810E941E050097C9F40091AE
:1007F0001B0210911C0289819A810E949F05E9E0E9
:100800008E9FF0011124E00FF11F81E090E09183B1
:10081000808389819A810E94B4050E94350304C0B7
:1008200088818F5F88837894DF91CF911F910F919A
:100830000895FC0180810895882319F1F894EDE171
:10084000F2E091E080FF07C020912F02A081B181EA
:10085000A20FB11D9C9386953296882399F79091AB
:100860002F0289E0989FC0011124E0911B02F091B2
:100870001C02E80FF91F84E090E0918380830E94BE
:1008800035030895F894EDE1F2E00BC080FF07C056
:1008900090912F02A081B181A90FB11D1C92869564
:1008A0003296882399F7789408950F931F93CF93E6
:1008B000DF93F89400911B0210911C02ADE1B2E0AD
:1008C00041E050E021C080FF1DC0E02FF12F20E06B
:1008D00030E012C0CD91DC911197C20FD31F9881E7
:1008E000913039F4608171816430710511F4518364
:1008F00040832F5F3F4F39966091C20170E0261709
:10090000370744F3869512968823E9F60E9435034B
:10091000DF91CF911F910F91089521E030E0FC010C
:1009200081819281009711F020E030E0C9010895A3
:1009300021E030E0FC0181819281009711F020E0FC
:1009400030E0C9010895DB011196ED91FC911297F9
:1009500003C00180F281E02D309719F09081981743
:10096000C1F7CF010895E62FF72F01C0FD01A18146
:10097000B281109719F09C919817C1F7CF01089593
:100980000E94B304FC0181819281009749F0DC014F
:1009900011962D913C911297328321830E94A606D5
:1009A00008951F93CF93DF93182FEA0183E090E01F
:1009B0000E940A06FC01009711F481E088BB1083B5
:1009C00089819A8192838183FA83E983DF91CF9130
:1009D0001F9108950F931F93DC011196ED91FC91E7
:1009E000129712961C921E92119707C001811281D4
:1009F000CF010E94A606E02FF12F3097B9F71F9183
:100A00000F910895009711F00E94EA0483E090E0AE
:100A10000E940A06FC01009719F0128211821082CE
:100A2000CF0108950895FC01818192810895FC0110
:100A3000818192810895FC018081089521E030E058
:100A4000FC0186819781009711F020E030E0C90118
:100A50000895FC0121E030E0468157818081918139
:100A60004817590711F020E030E0C9010895EF92CE
:100A7000FF920F931F93CF93DF938C018AE090E056
:100A80000E940A06E82EE7017E01F92EE701209771
:100A9000B9F0C8010E940A0699878887009731F447
:100AA000C7010E94A606C0E0D0E00AC019830883EF
:100AB0001F821E8281E090E09B838A831D821C82BC
:100AC000CE01DF91CF911F910F91FF90EF9008958C
:100AD000FC011782168281E090E093838283158265
:100AE00014820895CF93DF93EC01009739F0888545
:100AF00099850E94A606CE010E94A606DF91CF919D
:100B00000895FB01268137814081518124173507E3
:100B1000A9F02F5F3F4F37832683248135812F5FD4
:100B20003F4F2417350711F420E030E0358324834C
:100B30000084F185E02DE20FF31F80830895DC012E
:100B400016968D919C911797009761F01896ED91EC
:100B5000FC91199712968D919C911397E80FF91FAC
:100B60008081089580E00895FC0186819781009737
:100B700079F0019797838683828193810196208102
:100B800031818217930711F480E090E09383828390
:100B90000895FC01868197810097B1F001979783B2
:100BA000868322813381A085B185A20FB31F8C91EA
:100BB0002F5F3F4F408151812417350711F420E00A
:100BC00030E033832283089580E00895EF92FF920E
:100BD0000F931F93CF93DF93689F8001699F100D40
:100BE000789F100D1124C8010E940A06E82EE70123
:100BF0007E01F92EE701209731F08E2D60E070E044
:100C0000A8010E943F077E01CE01CDB7DEB7E6E026
:100C10000C945207CF93DF938230910510F482E059
:100C200090E0E0913202F091330220E030E040E0C9
:100C300050E028C06081718168177907C8F0681793
:100C4000790781F4828193814115510531F0DA01F0
:100C500013969C938E9312972DC09093330280939A
:100C6000320228C02115310529F06217730710F0F0
:100C7000B90102C0EA01DF01AF019B01728163810A
:100C8000E72FF62F3097B1F62115310501F1281B1A
:100C9000390B2430310580F412968D919C91139775
:100CA000209719F09B838A8304C09093330280932A
:100CB0003202FD01329646C0FD01E20FF31F81931F
:100CC00091932250304011963C932E933BC020913B
:100CD0003002309131022115310541F42091640038
:100CE00030916500309331022093300220916600EC
:100CF000309167002115310541F42DB73EB7409181
:100D0000620050916300241B350BE0913002F0919A
:100D10003102E217F307A0F42E1B3F0B2817390707
:100D200078F0AC014E5F5F4F2417350748F04E0F47
:100D30005F1F50933102409330028193919302C020
:100D4000E0E0F0E0CF01DF91CF910895CF93DF9302
:100D5000009709F491C0FC013297138212826091CE
:100D60003202709133026115710581F42081318165
:100D7000280F391F8091300290913102821793071A
:100D800099F5F0933102E093300276C0DB0180E008
:100D900090E002C0CD01D901AE17BF0748F412960A
:100DA0002D913C91139721153105A1F7CD0121C05B
:100DB000B383A283EF01499159919E01240F351FFE
:100DC000A217B30779F42D913C911197240F351F89
:100DD0002E5F3F4F3183208312962D913C911397C4
:100DE00033832283009729F4F0933302E093320295
:100DF00043C0DC011396FC93EE9312974D915D91E5
:100E0000A40FB51FEA17FB0769F420813181240F75
:100E1000351F2E5F3F4FEC013983288322813381B8
:100E20003B832A83E0E0F0E002C0FB01BC01DB0170
:100E300012968D919C9113970097B9F79B012E5FA5
:100E40003F4F8D919C911197820F931F40913002DB
:100E5000509131024817590779F4309729F41092CC
:100E600033021092320202C01382128222503040AA
:100E70003093310220933002DF91CF910895DC014D
:100E800001C06D9341505040E0F708952A88398899
:100E900048885F846E847D848C849B84AA84B98412
:100EA000C884DF80EE80FD800C811B81AA81B9811E
:100EB000CE0FD11D0FB6F894DEBF0FBECDBFED0132
:060EC0000895F894FFCF35
:080EC600102720003402000097
:00000001FF
